{
  "contractName": "Forwarder",
  "abi": [
    {
      "constant": true,
      "inputs": [],
      "name": "target",
      "outputs": [
        {
          "name": "",
          "type": "address"
        }
      ],
      "payable": false,
      "stateMutability": "view",
      "type": "function"
    },
    {
      "payable": true,
      "stateMutability": "payable",
      "type": "fallback"
    },
    {
      "constant": false,
      "inputs": [
        {
          "name": "_target",
          "type": "address"
        }
      ],
      "name": "setTarget",
      "outputs": [],
      "payable": false,
      "stateMutability": "nonpayable",
      "type": "function"
    }
  ],
  "bytecode": "0x608060405273beefbeefbeefbeefbeefbeefbeefbeefbeefbeef6000806101000a81548173ffffffffffffffffffffffffffffffffffffffff021916908373ffffffffffffffffffffffffffffffffffffffff16021790555034801561006457600080fd5b5061022b806100746000396000f30060806040526004361061004c576000357c0100000000000000000000000000000000000000000000000000000000900463ffffffff168063776d1a01146100ac578063d4b83992146100ef575b6100aa6000809054906101000a900473ffffffffffffffffffffffffffffffffffffffff166000368080601f016020809104026020016040519081016040528093929190818152602001838380828437820191505050505050610146565b005b3480156100b857600080fd5b506100ed600480360381019080803573ffffffffffffffffffffffffffffffffffffffff169060200190929190505050610184565b005b3480156100fb57600080fd5b506101046101c7565b604051808273ffffffffffffffffffffffffffffffffffffffff1673ffffffffffffffffffffffffffffffffffffffff16815260200191505060405180910390f35b61014f826101ec565b151561015a57600080fd5b600080825160208401856127105a03f43d604051816000823e8260008114610180578282f35b8282fd5b806000806101000a81548173ffffffffffffffffffffffffffffffffffffffff021916908373ffffffffffffffffffffffffffffffffffffffff16021790555050565b6000809054906101000a900473ffffffffffffffffffffffffffffffffffffffff1681565b600080823b9050600081119150509190505600a165627a7a723058205010928d0e74dd5b53a1f2534c27dcbd1263f69fb8fb43647f286757dbc7df020029",
  "source": "pragma solidity ^0.4.18;\n\nimport \"../proxy/DelegateProxy.sol\";\n\ncontract Forwarder is DelegateProxy {\n\n  // After compiling contract, `beefbeef...` is replaced in the bytecode by the real target address\n  address public target = 0xBEeFbeefbEefbeEFbeEfbEEfBEeFbeEfBeEfBeef; // checksumed to silence warning\n\n  /**\n   * @dev Replaces targer forwarder contract is pointing to\n   * Only authenticated user can replace target\n   * @param _target New target to proxy into\n   */\n  function setTarget(address _target) public {\n    target = _target;\n  }\n\n  /*\n   * @dev Forwards all calls to target\n   */\n  function() payable {\n    delegatedFwd(target, msg.data);\n  }\n}\n",
  "sourcePath": "/home/madis/code/district0x/district-server-smart-contracts/contracts/proxy/Forwarder.sol",
  "compiler": {
    "name": "solc",
    "version": "0.4.24+commit.e67f0147.Emscripten.clang"
  },
  "schemaVersion": "3.4.9",
  "updatedAt": "2022-08-29T11:57:14.295Z",
  "devdoc": {
    "methods": {
      "setTarget(address)": {
        "details": "Replaces targer forwarder contract is pointing to Only authenticated user can replace target",
        "params": {
          "_target": "New target to proxy into"
        }
      }
    }
  },
  "userdoc": {
    "methods": {}
  }
}