{
  "contractName": "MyContractCp",
  "abi": [
    {
      "constant": true,
      "inputs": [],
      "name": "counter",
      "outputs": [
        {
          "name": "",
          "type": "uint256"
        }
      ],
      "payable": false,
      "stateMutability": "view",
      "type": "function"
    },
    {
      "constant": true,
      "inputs": [],
      "name": "target",
      "outputs": [
        {
          "name": "",
          "type": "address"
        }
      ],
      "payable": false,
      "stateMutability": "view",
      "type": "function"
    },
    {
      "inputs": [
        {
          "name": "_counter",
          "type": "uint256"
        }
      ],
      "payable": false,
      "stateMutability": "nonpayable",
      "type": "constructor"
    },
    {
      "anonymous": false,
      "inputs": [
        {
          "indexed": false,
          "name": "theCounter",
          "type": "uint256"
        }
      ],
      "name": "onCounterIncremented",
      "type": "event"
    },
    {
      "anonymous": false,
      "inputs": [
        {
          "indexed": true,
          "name": "param1",
          "type": "uint256"
        },
        {
          "indexed": true,
          "name": "param2",
          "type": "uint256"
        },
        {
          "indexed": false,
          "name": "param3",
          "type": "uint256"
        },
        {
          "indexed": false,
          "name": "param4",
          "type": "uint256"
        }
      ],
      "name": "onSpecialEvent",
      "type": "event"
    },
    {
      "constant": true,
      "inputs": [
        {
          "name": "a",
          "type": "uint256"
        },
        {
          "name": "b",
          "type": "uint256"
        }
      ],
      "name": "myPlus",
      "outputs": [
        {
          "name": "",
          "type": "uint256"
        }
      ],
      "payable": false,
      "stateMutability": "view",
      "type": "function"
    },
    {
      "constant": false,
      "inputs": [
        {
          "name": "i",
          "type": "uint256"
        }
      ],
      "name": "setCounter",
      "outputs": [],
      "payable": false,
      "stateMutability": "nonpayable",
      "type": "function"
    },
    {
      "constant": false,
      "inputs": [
        {
          "name": "i",
          "type": "uint256"
        }
      ],
      "name": "incrementCounter",
      "outputs": [],
      "payable": false,
      "stateMutability": "nonpayable",
      "type": "function"
    },
    {
      "constant": false,
      "inputs": [
        {
          "name": "i",
          "type": "uint256"
        }
      ],
      "name": "doubleIncrementCounter",
      "outputs": [],
      "payable": false,
      "stateMutability": "nonpayable",
      "type": "function"
    },
    {
      "constant": false,
      "inputs": [
        {
          "name": "param1",
          "type": "uint256"
        },
        {
          "name": "param2",
          "type": "uint256"
        },
        {
          "name": "param3",
          "type": "uint256"
        },
        {
          "name": "param4",
          "type": "uint256"
        }
      ],
      "name": "fireSpecialEvent",
      "outputs": [],
      "payable": false,
      "stateMutability": "nonpayable",
      "type": "function"
    },
    {
      "constant": false,
      "inputs": [
        {
          "name": "param1",
          "type": "uint256"
        },
        {
          "name": "param2",
          "type": "uint256"
        },
        {
          "name": "param3",
          "type": "uint256"
        },
        {
          "name": "param4",
          "type": "uint256"
        }
      ],
      "name": "fireSpecialEventTwice",
      "outputs": [],
      "payable": false,
      "stateMutability": "nonpayable",
      "type": "function"
    },
    {
      "constant": false,
      "inputs": [
        {
          "name": "message",
          "type": "string"
        }
      ],
      "name": "alwaysErrors",
      "outputs": [],
      "payable": false,
      "stateMutability": "nonpayable",
      "type": "function"
    }
  ],
  "bytecode": "0x608060405273beefbeefbeefbeefbeefbeefbeefbeefbeefbeef6000806101000a81548173ffffffffffffffffffffffffffffffffffffffff021916908373ffffffffffffffffffffffffffffffffffffffff16021790555034801561006457600080fd5b506040516020806105cf8339810180604052810190808051906020019092919050505080600181905550506105318061009e6000396000f300608060405260043610610099576000357c0100000000000000000000000000000000000000000000000000000000900463ffffffff168063082063361461009e57806361bc221a146100cb5780636abbb3b4146100f65780638bb5d9c314610123578063960a0a4d14610150578063af67b2791461019b578063d4b8399214610204578063dd7f8bc51461025b578063f24dd1a9146102a6575b600080fd5b3480156100aa57600080fd5b506100c9600480360381019080803590602001909291905050506102f1565b005b3480156100d757600080fd5b506100e0610306565b6040518082815260200191505060405180910390f35b34801561010257600080fd5b506101216004803603810190808035906020019092919050505061030c565b005b34801561012f57600080fd5b5061014e60048036038101908080359060200190929190505050610358565b005b34801561015c57600080fd5b506101856004803603810190808035906020019092919080359060200190929190505050610362565b6040518082815260200191505060405180910390f35b3480156101a757600080fd5b50610202600480360381019080803590602001908201803590602001908080601f016020809104026020016040519081016040528093929190818152602001838380828437820191505050505050919291929050505061036f565b005b34801561021057600080fd5b50610219610411565b604051808273ffffffffffffffffffffffffffffffffffffffff1673ffffffffffffffffffffffffffffffffffffffff16815260200191505060405180910390f35b34801561026757600080fd5b506102a460048036038101908080359060200190929190803590602001909291908035906020019092919080359060200190929190505050610436565b005b3480156102b257600080fd5b506102ef6004803603810190808035906020019092919080359060200190929190803590602001909291908035906020019092919050505061047d565b005b6102fa8161030c565b6103038161030c565b50565b60015481565b806001600082825401925050819055507f1c6501e3e232839c81b222ef128249ec2413731478760677c52f6853fc4bcaf76001546040518082815260200191505060405180910390a150565b8060018190555050565b6000818301905092915050565b806040517f08c379a00000000000000000000000000000000000000000000000000000000081526004018080602001828103825283818151815260200191508051906020019080838360005b838110156103d65780820151818401526020810190506103bb565b50505050905090810190601f1680156104035780820380516001836020036101000a031916815260200191505b509250505060405180910390fd5b6000809054906101000a900473ffffffffffffffffffffffffffffffffffffffff1681565b82847fe4b58c05538f45d1e2fc273ec9bd484cbd1f8185cde105d0a08d905067e7ad2e8484604051808381526020018281526020019250505060405180910390a350505050565b82847fe4b58c05538f45d1e2fc273ec9bd484cbd1f8185cde105d0a08d905067e7ad2e8484604051808381526020018281526020019250505060405180910390a381817fe4b58c05538f45d1e2fc273ec9bd484cbd1f8185cde105d0a08d905067e7ad2e8587604051808381526020018281526020019250505060405180910390a3505050505600a165627a7a723058202f180b186bb1e5d18b31d84cd9e13b72cd6f39219bb6e738ff3f3164b10249740029",
  "source": "pragma solidity ^0.4.18;\n\ncontract MyContract {\n\n  address public target = 0xBEeFbeefbEefbeEFbeEfbEEfBEeFbeEfBeEfBeef;\n  uint public counter;\n\n  event onCounterIncremented(uint theCounter);\n  event onSpecialEvent(uint indexed param1, uint indexed param2, uint param3, uint param4);\n\n  function MyContract(uint _counter) {\n    counter = _counter;\n  }\n\n  function myPlus(uint a, uint b) constant returns (uint) {\n    return a + b;\n  }\n\n  function setCounter(uint i) {\n    counter = i;\n  }\n\n  function incrementCounter(uint i) {\n    counter += i;\n    onCounterIncremented(counter);\n  }\n\n  function doubleIncrementCounter(uint i) {\n    incrementCounter(i);\n    incrementCounter(i);\n  }\n\n  function fireSpecialEvent(uint param1, uint param2, uint param3, uint param4) {\n    onSpecialEvent(param1, param2, param3, param4);\n  }\n\n  function fireSpecialEventTwice(uint param1, uint param2, uint param3, uint param4) {\n    onSpecialEvent(param1, param2, param3, param4);\n    onSpecialEvent(param4, param3, param2, param1);\n  }\n\n  function alwaysErrors(string message) public {\n    revert(message);\n  }\n}\n",
  "sourcePath": "/home/madis/code/district0x/district-server-smart-contracts/contracts/MyContract.sol",
  "compiler": {
    "name": "solc",
    "version": "0.4.24+commit.e67f0147.Emscripten.clang"
  },
  "schemaVersion": "3.4.9",
  "updatedAt": "2022-08-29T11:58:38.617Z",
  "networkType": "ethereum",
  "devdoc": {
    "methods": {}
  },
  "userdoc": {
    "methods": {}
  }
}